:100000000C9463000C948B000C948B000C948B006C
:100010000C948B000C948B000C948B000C948B0034
:100020000C948B000C948B000C948B000C948B0024
:100030000C948B000C948B000C948B000C948B0014
:100040000C94D9060C948B000C9470080C948B00C3
:100050000C948B000C948B000C948B000C948B00F4
:100060000C948B000C948B000000000024002700EF
:100070002A0000000000250028002B0000000000DE
:1000800023002600290004040404040404040202DA
:100090000202020203030303030301020408102007
:1000A0004080010204081020010204081020000012
:1000B0000007000201000003040600000000000029
:1000C00000004502C50911241FBECFEFD8E0DEBFF6
:1000D000CDBF12E0A0E0B1E0EEEEFCE102C0059081
:1000E0000D92A431B107D9F712E0A4E1B2E001C04A
:1000F0001D92A53EB107E1F710E0C6ECD0E004C0C8
:100100002297FE010E94710EC23CD107C9F70E94DE
:10011000D2060C94750E0C940000FF920F931F935F
:10012000CF93DF93EC01F62E80E090E0442311F0B2
:1001300081E090E08C0102608C8161E00E94E20726
:100140008B816A8140E0202F0E942F088B816A8179
:1001500040E02F2D0E942F088C8160E00E94E20772
:100160008C8161E00E94E20798012D7F8B816A817A
:1001700040E00E942F088B816A8140E02F2D0E9471
:100180002F088C8160E00E94E20781E090E00E94ED
:1001900059078C8161E00E94E2078B816A8140E00F
:1001A000202F0E942F088B816A8140E02F2D0E9412
:1001B0002F088C8160E00E94E20784E690E00E94B4
:1001C0005907DF91CF911F910F91FF900895EF9202
:1001D000FF920F931F93CF93DF93EC01F62E0985C7
:1001E00041110160802F90E08C0102608C8161E000
:1001F0000E94E207F29480EFF822EF2CE02A8B8134
:100200006A8140E02E2D0E942F088C8160E00E94C0
:10021000E20781E090E00E9459078C8161E00E9432
:10022000E2070D7FF02A8B816A8140E02F2D0E942A
:100230002F088C8160E00E94E20781E090E00E943C
:1002400059078C8161E00E94E2078B816A8140E05E
:100250002E2D0E942F088C8160E00E94E20784E628
:1002600090E00E945907DF91CF911F910F91FF906D
:10027000EF9008950F931F93CF93DF93EC01162F08
:10028000042F8E8184FF04C0CE010E948D000EC019
:1002900070E094E0759567959A95E1F7CE010E941C
:1002A000E700CE01612F402F0E94E700DF91CF9140
:1002B0001F910F91089541E00E943A01089540E096
:1002C0000E943A010895FC016781862F846087832C
:1002D0006C60CF010E945F010895DF93CF93CDB78B
:1002E000DEB728970FB6F894DEBF0FBECDBF9C01D6
:1002F000FE013196A2E0B2E088E00D9001928150BB
:10030000E1F7F9018385841710F4482F4150E42F59
:10031000F0E0EE0FFF1FEC0FFD1F8181680F60689A
:10032000C9010E945F0128960FB6F894DEBF0FBE88
:10033000CDBFCF91DF91089561E00E945F0180ED14
:1003400097E00E9459070895CF93DF93EC01423064
:1003500018F08E8188608E834B871C86222329F0BB
:10036000413019F48E8184608E8380E593EC0E9485
:1003700059078B816A8140E020E00E942F088B8121
:100380006A8140E020E00E942F086E8164FD21C058
:10039000CE0163E040E00E94E70084E991E10E9421
:1003A0005907CE0163E040E00E94E70084E991E153
:1003B0000E945907CE0163E040E00E94E70086E911
:1003C00090E00E945907CE0162E040E00E94E70001
:1003D00016C06062CE010E945F0184E991E10E9433
:1003E00059076E816062CE010E945F0186E990E04C
:1003F0000E9459076E816062CE010E945F016E818A
:100400006062CE010E945F0184E08F83CE010E9472
:100410006301CE010E949C0182E08887CE0166E0E4
:100420000E945F01DF91CF9108950F93CF93DF93E7
:10043000EC01862F6B834A832C8394E0998761E0DB
:100440000E94C2078A8161E00E94C2078C8161E03C
:100450000E94C207053010F41E8202C080E18E8324
:10046000CE0160E141E020E00E94A401DF91CF9144
:100470000F9108950F93FC018CEF91E0918380839D
:10048000CF010E9415020F9108950F9386E192E02B
:1004900066E043E025E004E00E943A020F910895EF
:1004A0008091DB0160E00E94E2078091DD0161E064
:1004B0000E94E2076091DF017091E001882777FDDB
:1004C0008095982F0E942F078091DB0161E00E94A8
:1004D000E2078091DD0161E00E94E2076091DF01A7
:1004E0007091E001882777FD8095982F0E942F0753
:1004F0008091DB0161E00E94E2078091DD0160E014
:100500000E94E2076091DF017091E001882777FD8A
:100510008095982F0E942F078091DB0160E00E9458
:10052000E2078091DD0160E00E94E2076091DF0157
:100530007091E001882777FD8095982F0E942F0702
:1005400008958091DB0161E00E94E2078091DD0166
:1005500061E00E94E2076091DF017091E00188276D
:1005600077FD8095982F0E942F078091DB0160E036
:100570000E94E2078091DD0161E00E94E207609144
:10058000DF017091E001882777FD8095982F0E9408
:100590002F078091DB0160E00E94E2078091DD017E
:1005A00060E00E94E2076091DF017091E00188271E
:1005B00077FD8095982F0E942F078091DB0161E0E5
:1005C0000E94E2078091DD0160E00E94E2076091F5
:1005D000DF017091E001882777FD8095982F0E94B8
:1005E0002F070895809141029091420201969093C5
:1005F000420280934102823491050CF45AC020914A
:100600002B0230912C028091E9019091EA01281788
:10061000390709F04EC02091290230912A028091B9
:10062000E7019091E8012817390709F042C086E1F7
:1006300092E060E041E00E946D0186E192E060E0BE
:1006400071E00E94360A0E9450020E9450020E94ED
:1006500050020E9450020E94500268EB7BE080E052
:1006600090E00E942F070E94A1020E94A1020E9416
:10067000A1020E94A1020E94A102109242021092C5
:1006800041028091E9019091EA0105969093EA0177
:100690008093E901CC9769F41092EA011092E90184
:1006A0008091E7019091E80101969093E801809391
:1006B000E70108950F931F938091D70161E00E9495
:1006C000E20764EF71E080E090E00E942F078091E4
:1006D000D70160E00E94E20706E112E0C80160E095
:1006E00040E00E946D01C80165E171E00E94360A98
:1006F0001F910F9108950F931F938091D90161E08D
:100700000E94E20764EF71E080E090E00E942F0712
:100710008091D90160E00E94E20706E112E0C80181
:1007200060E040E00E946D01C80161E271E00E945A
:10073000360A1F910F910895AF92BF92CF92DF9228
:10074000EF92FF920F931F9386E192E060E040E00A
:100750000E946D0186E192E06DE271E00E94360A2E
:100760008091430290914402009749F48091EB01FB
:100770009091EC01A091ED01B091EE010AC00197BA
:1007800081F48091EF019091F001A091F101B0917D
:10079000F2018093350290933602A0933702B09312
:1007A0003802A0903502B0903602C0903702D09047
:1007B0003802E090F301F090F4010091F5011091FE
:1007C000F601C801B70120E030E040E05FE30E949D
:1007D000890D9B01AC01C601B5010E94D20B60934B
:1007E000390270933A0280933B0290933C02C80115
:1007F000B70120E030E040E05FEB0E94890D9B01F3
:10080000AC01C601B5010E94D20B60933D0270930A
:100810003E0280933F029093400282ED92E062E4B8
:1008200071E00E94360A4091350250913602609183
:1008300037027091380282ED92E00E94C60B86E189
:1008400092E060E041E00E946D0186E192E060E6A6
:1008500071E00E94360A4091350250913602609153
:1008600037027091380286E192E00E94C20B82ED5D
:1008700092E065E671E00E94360A4091F3015091E2
:10088000F4016091F5017091F60182ED92E00E9411
:10089000C60B86E192E06DE971E00E94360A409154
:1008A000F3015091F4016091F5017091F60186E138
:1008B00092E00E94C20B68EB7BE080E090E00E9437
:1008C0002F0786E192E00E949C0182ED92E066EAA9
:1008D00071E00E94360A6091E7017091E80182EDB3
:1008E00092E00E94230B82ED92E06EEA71E00E949A
:1008F000360A6091E9017091EA0182ED92E00E946E
:100900002B0B0E947B0360ED77E080E090E00E947B
:100910002F071F910F91FF90EF90DF90CF90BF9026
:10092000AF9008950F931F93CF93DF9300E010E0F3
:100930000CC0809114020E94A407C80FD91FD09345
:100940002402C09323020F5F1F4F6091E101709159
:10095000E201C0912302D0912402061717074CF33D
:10096000CE010E940B0E7093240260932302DF914C
:10097000CF911F910F910895AF92BF92CF92DF92C6
:10098000EF92FF920F931F93CF93DF930E94210763
:100990005B016C018091E3019091E401A091E5017C
:1009A000B091E601A80EB91ECA1EDB1EA092250258
:1009B000B0922602C0922702D0922802C601B50149
:1009C00020E83EEE46E350E00E941E0ECA01B90147
:1009D00028E130E040E050E00E941E0EEB017093F1
:1009E0002A02609329026830710528F410924402AB
:1009F0001092430206C081E090E0909344028093FD
:100A00004302C601B50120E83EEE46E350E00E94F5
:100A10001E0E162F072FF82EE92E20E63AEE40E0A4
:100A200050E00E941E0E30932C0220932B02612F67
:100A3000702F8F2D9E2D20E63AEE40E050E00E9470
:100A40001E0E28EE33E040E050E00E941E0E309370
:100A50002E0220932D02C601B50128EE33E040E0BE
:100A600050E00E941E0E7093300260932F0282EDC0
:100A700092E0BE010E94230B82ED92E06EEA71E0EB
:100A80000E94360A60912B0270912C0282ED92E056
:100A90000E94230B82ED92E06EEA71E00E94360A1A
:100AA00060912D0270912E0282ED92E00E94230B44
:100AB00082ED92E06EEA71E00E94360A60912F02A8
:100AC0007091300282ED92E00E94230B82ED92E061
:100AD00060EB71E00E94360ADF91CF911F910F9178
:100AE000FF90EF90DF90CF90BF90AF90089560910E
:100AF000230270912402882777FD8095982F0E9409
:100B0000D50C20E030E04CED52E40E94890D20E04D
:100B100030E040E85AE30E94890D609331027093FF
:100B20003202809333029093340220E030E040E0C0
:100B300050E00E94360C882309F456C00E94BC0481
:100B4000609123027091240282ED92E00E94230BB7
:100B500082ED92E065EB71E00E94360A409131022D
:100B600050913202609133027091340282ED92E032
:100B70000E94C20B82ED92E069EB71E00E94550A7F
:100B800086E192E060E041E00E946D0186E192E042
:100B90006BEB71E00E94360A4091310250913202B3
:100BA000609133027091340286E192E00E94C20BA0
:100BB00086E192E06EEB71E00E94360A6091E701F7
:100BC0007091E80186E192E00E94230B86E192E0B9
:100BD0006EEA71E00E94360A6091E9017091EA01C3
:100BE00086E192E00E94230B08956F927F928F928C
:100BF0009F92AF92BF92CF92DF92EF92FF920F93AC
:100C00001F93CF93DF930E949C03C0E0D0E068EE77
:100C100073E080E090E00E942F070E9492040E94FF
:100C200077050E94F202809143029091440200975E
:100C300049F48091EB019091EC01A091ED01B0910C
:100C4000EE010AC0019781F48091EF019091F001CB
:100C5000A091F101B091F201809335029093360298
:100C6000A0933702B093380260903502709036023C
:100C70008090370290903802E090F301F090F401F8
:100C80000091F5011091F601C801B70120E030E0B4
:100C900040E05FE30E94890D9B01AC01C401B301F8
:100CA0000E94D20B5B016C016093390270933A028F
:100CB00080933B0290933C02C801B70120E030E0F2
:100CC00040E05FEB0E94890D9B01AC01C401B301C0
:100CD0000E94D20B3B014C0160933D0270933E0297
:100CE00080933F0290934002E0903102F0903202F4
:100CF0000091330210913402C801B701A601950199
:100D00000E94850D18163CF4209729F40E945A037E
:100D1000C1E0D0E07CCFC801B701A40193010E94DB
:100D2000360C88230CF073CF219709F06ECF0E9408
:100D30007B036BCF0F931F938091D90161E00E94D9
:100D4000C2078091D70161E00E94C2078091DB0158
:100D500061E00E94C2078091DD0161E00E94C2074C
:100D600083E00E94A10702ED12E0C80140E855E2CD
:100D700060E070E00E94AD08C8010E94A609C801A9
:100D800067EC71E00E94550A06E112E0C80162E0DA
:100D900044E120E00E94A401C8010E949C011F912F
:100DA0000F9108950E9467070E949A060E94F50518
:100DB000FDCF1F920F920FB60F9211242F933F93E6
:100DC0008F939F93AF93BF938091490290914A0272
:100DD000A0914B02B0914C0230914D020196A11DA1
:100DE000B11D232F2D5F2D3720F02D570196A11D0A
:100DF000B11D20934D028093490290934A02A09323
:100E00004B02B0934C028091450290914602A09112
:100E10004702B09148020196A11DB11D8093450281
:100E200090934602A0934702B0934802BF91AF91BE
:100E30009F918F913F912F910F900FBE0F901F9018
:100E400018958FB7F8942091490230914A02409149
:100E50004B0250914C028FBFB901CA010895EF9225
:100E6000FF920F931F937B018C018FB7F8944091F1
:100E7000490250914A0260914B0270914C028FBF1F
:100E80002FB7F8948091490290914A02A0914B02A9
:100E9000B0914C022FBF841B950BA60BB70BE81625
:100EA000F9060A071B0760F71F910F91FF90EF905B
:100EB0000895019759F0FC01EE0FFF1FEE0FFF1F81
:100EC00032978FB7F8943197F1F78FBF08957894E0
:100ED00084B5826084BD84B5816084BD85B582603F
:100EE00085BD85B5816085BDEEE6F0E080818160DD
:100EF0008083E1E8F0E0808182608083808181608E
:100F00008083E0E8F0E0808181608083E1EBF0E0C5
:100F1000808184608083E0EBF0E080818160808369
:100F2000EAE7F0E080818460808380818260808352
:100F30008081816080838081806880831092C1007D
:100F400008958093F70108958F709091F70192951D
:100F5000990F990F907C982B90937C0080917A0048
:100F6000806480937A0080917A0086FDFCCF209186
:100F7000780040917900942F80E030E0282B392BC5
:100F8000C9010895282F30E0C90186569F4FFC0102
:100F900094912A573F4FF9018491882391F0E82FCB
:100FA000F0E0EE0FFF1FE859FF4FA591B4916623C3
:100FB00029F48C91909589238C9308958C91892B99
:100FC0008C930895482F50E0CA0182559F4FFC0131
:100FD0002491CA0186569F4FFC0194914A575F4F56
:100FE000FA0134913323D1F1222331F1233021F45A
:100FF000809180008F7705C0243031F4809180008B
:101000008F7D8093800018C0213019F484B58F77CC
:1010100004C0223021F484B58F7D84BD0DC02630FC
:1010200021F48091B0008F7705C0273029F480919A
:10103000B0008F7D8093B000E32FF0E0EE0FFF1F34
:10104000EE58FF4FA591B491662329F48C919095A9
:1010500089238C9308958C91892B8C930895BF924A
:10106000CF92DF92EF92FF920F931F93CF93DF9374
:10107000E82EF62EB42EC0E0D0E0022F10E087E07C
:10108000C82ED12CBB2041F4B8010C2E02C075959E
:1010900067950A94E2F70AC0B6016C1B7D0BC80184
:1010A00002C0959587956A95E2F7BC0161708E2D17
:1010B0000E94E2078F2D61E00E94E2078F2D60E021
:1010C0000E94E2072196C830D105E1F6DF91CF9169
:1010D0001F910F91FF90EF90DF90CF90BF900895F8
:1010E0001F920F920FB60F9211242F933F934F939D
:1010F0005F936F937F938F939F93AF93BF93EF9380
:10110000FF934091C600E091CE02F091CF02CF0153
:10111000019660E870E00E940B0E9C018091D00265
:101120009091D1022817390739F0E25BFD4F4083D7
:101130003093CF022093CE02FF91EF91BF91AF91F8
:101140009F918F917F916F915F914F913F912F91DF
:101150000F900FBE0F901F9018955F926F927F9225
:101160008F929F92AF92BF92CF92DF92EF92FF92B7
:101170000F931F93CF93DF93EC013A014B0141345E
:1011800082E458078FE0680780E078070CF07FC0A2
:1011900060E874E88EE190E0A40193010E94400EA3
:1011A0002150304040405040CA01B90122E030E0B7
:1011B00040E050E00E94400E59016A01A6019501ED
:1011C000209530954095509594E0220F331F441F91
:1011D000551F9A95D1F760E074E284EF90E00E9489
:1011E000400ECA01B9012FEF30E040E050E00E940C
:1011F000EC0DA40193010E94400EC90181509F4F44
:10120000181619061CF4522E5A9403C055245394F0
:10121000521A60E079E08DE390E0A40193010E940E
:10122000400E2150304040405040CA01B90122E0F8
:1012300030E040E050E00E94400E2095309540950F
:10124000509583E0220F331F441F551F8A95D1F715
:1012500060E074E284EF90E00E94400ECA01B901A0
:101260002FEF30E040E050E00E94EC0DA40193012C
:101270000E94400EC90181509F4F181619061CF498
:10128000822F815002C081E0821B851500F5E88520
:10129000F98581E090E00A8802C0880F991F0A94BE
:1012A000E2F7808360E079E08DE390E0A4019301B0
:1012B0000E94400E2150304040405040CA01B901C8
:1012C00022E030E040E050E00E94400E04C0E8859B
:1012D000F98510829501EC81FD813083EE81FF81DB
:1012E0002083EA85FB85208141E050E0CA010E841D
:1012F00002C0880F991F0A94E2F7282B2083EA8501
:10130000FB852081CA010F8402C0880F991F0A94AF
:10131000E2F7282B2083EA85FB858081088802C0BC
:10132000440F551F0A94E2F7842B8083DF91CF91FD
:101330001F910F91FF90EF90DF90CF90BF90AF90F3
:101340009F908F907F906F905F900895DC01129630
:10135000ED91FC911397EE57FF4F8081918192930D
:1013600082930895FC01A085B18521898C9190E03C
:10137000022E02C0959587950A94E2F780FFF6CF7A
:101380000484F585E02D608308958EE092E09093CB
:10139000D3028093D2028EE492E09093D5028093A0
:1013A000D40285EC90E09093D7028093D60284EC2F
:1013B00090E09093D9028093D80280EC90E09093D3
:1013C000DB028093DA0281EC90E09093DD0280935F
:1013D000DC0286EC90E09093DF028093DE0284E0F2
:1013E0008093E00283E08093E10287E08093E20251
:1013F00085E08093E30281E08093E40208950F93F7
:101400001F93CF93DF938C01EB0109C02196D80184
:10141000ED91FC910190F081E02DC8010995688162
:101420006623A1F7DF91CF911F910F910895EF925D
:10143000FF920F931F93CF93DF938C017B01EA01FF
:101440000CC0D7016D917D01D801ED91FC91019007
:10145000F081E02DC80109952197209791F7DF9140
:10146000CF911F910F91FF90EF900895DC01ED91C6
:10147000FC910280F381E02D099508950F931F934D
:101480008C01DC01ED91FC910190F081E02D6DE08B
:101490000995D801ED91FC910190F081E02DC801F2
:1014A0006AE009951F910F9108950F931F938C0186
:1014B0000E94360AC8010E943E0A1F910F910895AA
:1014C0002F923F924F925F926F927F928F929F9254
:1014D000AF92BF92CF92DF92EF92FF920F931F9342
:1014E000DF93CF93CDB7DEB7A0970FB6F894DEBFEA
:1014F0000FBECDBF1C016A017B014115510561057D
:10150000710549F4DC01ED91FC910190F081E02D31
:1015100060E3099554C0882499245401422E55242F
:101520006624772401E010E00C0F1D1F080D191D23
:10153000C701B601A30192010E941E0EF80160834B
:101540000894811C911CA11CB11CC701B601A30108
:1015500092010E941E0EC901DA016C017D01C114C5
:10156000D104E104F104F1F681E0E82EF12CEC0E57
:10157000FD1EE80CF91C3E010894611C711CD5018C
:10158000C4010197A109B1096C01C818D90814C098
:10159000F601EE0DFF1D60816A3010F4605D01C040
:1015A000695CD101ED91FC910190F081E02DC101C8
:1015B00009950894E108F1086E147F0449F7A09694
:1015C0000FB6F894DEBF0FBECDBFCF91DF911F9154
:1015D0000F91FF90EF90DF90CF90BF90AF909F90D2
:1015E0008F907F906F905F904F903F902F900895D5
:1015F0002AE00E94600A0895EF92FF920F931F93D2
:10160000CF93DF93EC017A018B0177FF0FC0E88164
:10161000F9810190F081E02D6DE20995109500951A
:10162000F094E094E11CF11C011D111DCE01B801E4
:10163000A7012AE00E94600ADF91CF911F910F91CC
:10164000FF90EF900895AB01662757FD6095762FC8
:101650000E94FC0A08950F931F938C01AB0166272B
:1016600057FD6095762F0E94FC0AC8010E943E0A31
:101670001F910F9108959F92AF92BF92CF92DF92E8
:10168000EF92FF920F931F93CF93DF93EC017A01B8
:101690008B01922ECB01BA0120E030E040E050E017
:1016A0000E94360C882364F4E881F9810190F0816E
:1016B000E02DCE016DE2099517FB109517F91095F5
:1016C00020E030E040E05FE3AA240BC0CA01B9018A
:1016D00020E030E040E251E40E943A0C9B01AC0172
:1016E000A394A91498F3C801B7010E94D20B5B011F
:1016F0006C010E94A70C7B018C01CE01B801A701EF
:101700000E94F80A992029F0CE0165ED71E00E944F
:10171000360AC801B7010E94D30C9B01AC01C60177
:10172000B5010E94D10B20C020E030E040E251E43E
:101730000E94890D7B018C010E94A20C5B016C014F
:10174000CC24B7FCC094DC2CCE01B601A5010E94CC
:10175000FC0AC601B5010E94D50C9B01AC01C80171
:10176000B7010E94D10B9A949920F1F6DF91CF91A5
:101770001F910F91FF90EF90DF90CF90BF90AF90AF
:101780009F90089522E00E943B0B08950F931F93B2
:101790008C010E94C20BC8010E943E0A1F910F914A
:1017A00008955058BB27AA270ED075C166D130F0D6
:1017B0006BD120F031F49F3F11F41EF45BC10EF4A5
:1017C000E095E7FB51C1E92F77D180F3BA176207A3
:1017D00073078407950718F071F49EF58FC10EF416
:1017E000E0950B2EBA2FA02D0B01B90190010C0131
:1017F000CA01A0011124FF27591B99F0593F50F449
:10180000503E68F11A16F040A22F232F342F4427A0
:10181000585FF3CF469537952795A795F040539598
:10182000C9F77EF41F16BA0B620B730B840BBAF068
:101830009150A1F0FF0FBB1F661F771F881FC2F7D3
:101840000EC0BA0F621F731F841F48F487957795E7
:101850006795B795F7959E3F08F0B3CF9395880F9E
:1018600008F09927EE0F979587950895D9D008F439
:1018700081E008950CD00FC107D140F0FED030F0C8
:1018800021F45F3F19F0F0C0511139C1F3C014D1F8
:1018900098F39923C9F35523B1F3951B550BBB2737
:1018A000AA2762177307840738F09F5F5F4F220FE4
:1018B000331F441FAA1FA9F333D00E2E3AF0E0E8DD
:1018C00030D091505040E695001CCAF729D0FE2F29
:1018D00027D0660F771F881FBB1F261737074807BB
:1018E000AB07B0E809F0BB0B802DBF01FF27935871
:1018F0005F4F2AF09E3F510568F0B6C000C15F3FC0
:10190000ECF3983EDCF3869577956795B795F79558
:101910009F5FC9F7880F911D9695879597F9089550
:10192000E1E0660F771F881FBB1F621773078407EC
:10193000BA0720F0621B730B840BBA0BEE1F88F7FB
:10194000E095089504D06894B111D9C00895BCD031
:1019500088F09F5790F0B92F9927B751A0F0D1F098
:10196000660F771F881F991F1AF0BA95C9F712C022
:10197000B13081F0C3D0B1E00895C0C0672F782F97
:101980008827B85F39F0B93FCCF38695779567958E
:10199000B395D9F73EF490958095709561957F4FFA
:1019A0008F4F9F4F0895E89409C097FB3EF49095A0
:1019B0008095709561957F4F8F4F9F4F9923A9F028
:1019C000F92F96E9BB279395F695879577956795B7
:1019D000B795F111F8CFFAF4BB0F11F460FF1BC0FB
:1019E0006F5F7F4F8F4F9F4F16C0882311F096E98E
:1019F00011C0772321F09EE8872F762F05C066233C
:101A000071F096E8862F70E060E02AF09A95660FF4
:101A1000771F881FDAF7880F9695879597F90895AD
:101A2000990F0008550FAA0BE0E8FEEF16161706EF
:101A3000E807F907C0F012161306E407F50798F057
:101A4000621B730B840B950B39F40A2661F0232B70
:101A5000242B252B21F408950A2609F4A140A695EC
:101A60008FEF811D811D089597F99F6780E870E0D1
:101A700060E008959FEF80EC089500240A94161604
:101A8000170618060906089500240A94121613066C
:101A9000140605060895092E0394000C11F48823FA
:101AA00052F0BB0F40F4BF2B11F460FF04C06F5F16
:101AB0007F4F8F4F9F4F089557FD9058440F551FEC
:101AC00059F05F3F71F04795880F97FB991F61F0C0
:101AD0009F3F79F087950895121613061406551F37
:101AE000F2CF4695F1DF08C0161617061806991FA3
:101AF000F1CF86957105610508940895E894BB2798
:101B000066277727CB0197F908958ADF08F48FEFCE
:101B100008950BD0C0CFB1DF28F0B6DF18F09523C1
:101B200009F0A2CFA7CF1124EACFC6DFA0F3959F7B
:101B3000D1F3950F50E0551F629FF001729FBB27B4
:101B4000F00DB11D639FAA27F00DB11DAA1F649F60
:101B50006627B00DA11D661F829F2227B00DA11D13
:101B6000621F739FB00DA11D621F839FA00D611D99
:101B7000221F749F3327A00D611D231F849F600DBA
:101B8000211D822F762F6A2F11249F5750408AF0F3
:101B9000E1F088234AF0EE0FFF1FBB1F661F771F7F
:101BA000881F91505040A9F79E3F510570F05CCFBF
:101BB000A6CF5F3FECF3983EDCF38695779567956B
:101BC000B795F795E7959F5FC1F7FE2B880F911D9D
:101BD0009695879597F90895629FD001739FF001BC
:101BE000829FE00DF11D649FE00DF11D929FF00DAD
:101BF000839FF00D749FF00D659FF00D9927729FE4
:101C0000B00DE11DF91F639FB00DE11DF91FBD016E
:101C1000CF011124089597FB092E07260AD077FDDE
:101C200004D049D006D000201AF4709561957F4FFA
:101C30000895F6F7909581959F4F0895A1E21A2E89
:101C4000AA1BBB1BFD010DC0AA1FBB1FEE1FFF1F60
:101C5000A217B307E407F50720F0A21BB30BE40BB0
:101C6000F50B661F771F881F991F1A9469F76095F7
:101C70007095809590959B01AC01BD01CF010895B1
:101C800097FB092E05260ED057FD04D0D7DF0AD0CA
:101C9000001C38F450954095309521953F4F4F4F9B
:101CA0005F4F0895F6F790958095709561957F4FF9
:101CB0008F4F9F4F0895AA1BBB1B51E107C0AA1F5E
:101CC000BB1FA617B70710F0A61BB70B881F991FDD
:101CD0005A95A9F780959095BC01CD010895EE0F16
:0E1CE000FF1F0590F491E02D0994F894FFCFBA
:101CEE00202020202046756574746572756E6721FC
:101CFE0020202020004865697A756E672061757313
:101D0E00004865697A756E672065696E004F2048D8
:101D1E0041492C20492043414E2048415A204C43F2
:101D2E004400446965206F7074696D616C65205460
:101D3E00656D70657261747572206973743A2000F6
:101D4E00545F6F3A00446965205370616E6E652072
:101D5E007A772E206D696E696D616C657220756E75
:101D6E0064206D6178696D616C65722054656D706B
:101D7E00657261747572206973743A200020537015
:101D8E00616E6E653A0046757474657220003A0095
:101D9E002020202000203D20004300543A00204601
:101DAE007574746572200023232320526561647953
:101DBE0020232323002E000C000D00090008003202
:101DCE00003200401B48020A0028000000A8410013
:101DDE0000A8410000803F01000000005B01FF09E8
:101DEE00170A000040001400540000000000B20961
:041DFE00FF09170AB8
:00000001FF
