:100000000C9463000C948B000C948B000C948B006C
:100010000C948B000C948B000C948B000C948B0034
:100020000C948B000C948B000C948B000C948B0024
:100030000C948B000C948B000C948B000C948B0014
:100040000C9421070C948B000C9477080C948B0073
:100050000C948B000C948B000C948B000C948B00F4
:100060000C948B000C948B000000000024002700EF
:100070002A0000000000250028002B0000000000DE
:1000800023002600290004040404040404040202DA
:100090000202020203030303030301020408102007
:1000A0004080010204081020010204081020000012
:1000B0000007000201000003040600000000000029
:1000C00000007702CC0911241FBECFEFD8E0DEBFBD
:1000D000CDBF12E0A0E0B1E0ECEFFCE102C0059082
:1000E0000D92A831B107D9F712E0A8E1B2E001C042
:1000F0001D92AD3EB107E1F710E0C6ECD0E004C0C0
:100100002297FE010E94780EC23CD107C9F70E94D7
:100110001A070C947C0E0C9400000F931F938C0113
:10012000FC01848160E00E942A0881E090E00E9446
:10013000A107F801848161E00E942A0881E090E033
:100140000E94A107F801848160E00E942A0884E6E9
:1001500090E00E94A1071F910F910895CF92DF9226
:10016000EF92FF920F931F93CF93DF93D82EC92E58
:10017000282F392FC9018C01C0E0D0E0E62EFF24E2
:10018000F801858161E00E940A08B7010C2E02C0C7
:10019000759567950A94E2F76170F80185810E9470
:1001A0002A0821960F5F1F4FC830D10549F78D2DC2
:1001B0009C2D0E948D00DF91CF911F910F91FF9098
:1001C000EF90DF90CF900895CF92DF92EF92FF9261
:1001D0000F931F93CF93DF93D82EC92E282F392F3B
:1001E000C9018C01C0E0D0E0E62EFF24F801858132
:1001F00061E00E940A08B7010C2E02C07595679550
:100200000A94E2F76170F80185810E942A0821961C
:100210000F5F1F4FC430D10549F78D2D9C2D0E94D3
:100220008D00DF91CF911F910F91FF90EF90DF90A4
:10023000CF9008951F93CF93DF93EC01162F8A81FF
:10024000642F0E942A088B8160E00E942A088D8515
:1002500084FF05C0CE01612F0E94AE000EC0612F49
:1002600070E084E0759567958A95E1F7CE010E946C
:10027000E400CE01612F0E94E400DF91CF911F9135
:10028000089541E00E941A01089540E00E941A0179
:100290000895FC016685862F846086876C60CF0197
:1002A0000E9445010895DF93CF93CDB7DEB728971D
:1002B0000FB6F894DEBF0FBECDBF9C01FE01319694
:1002C000A6E0B2E088E00D9001928150E1F7F901DB
:1002D0008189841710F4482F4150E42FF0E0EE0F8D
:1002E000FF1FEC0FFD1F8181680F6068C9010E942C
:1002F000450128960FB6F894DEBF0FBECDBFCF9153
:10030000DF91089561E00E94450180ED97E00E9431
:10031000A1070895CF93DF93EC01423018F08D854B
:1003200088608D87498B1A8A222329F0413019F47D
:100330008D8584608D8780E593EC0E94A1078A817A
:1003400060E00E942A088C8160E00E942A088B816C
:1003500060E00E942A086D8564FD1DC0CE0163E047
:100360000E94E40084E991E10E94A107CE0163E0CC
:100370000E94E40084E991E10E94A107CE0163E0BC
:100380000E94E40086E990E00E94A107CE0162E0AD
:100390000E94E40016C06062CE010E94450184E91B
:1003A00091E10E94A1076D856062CE010E94450126
:1003B00086E990E00E94A1076D856062CE010E94EF
:1003C00045016D856062CE010E94450184E08E8703
:1003D000CE010E944901CE010E94820182E08F87F6
:1003E000CE0166E00E944501DF91CF9108956F92A2
:1003F0007F928F92AF92CF92EF920F931F93DF93E2
:10040000CF93CDB7DEB73C01162F842FF301428383
:1004100023830483E582C682A78280869D85918797
:100420009E8592879F8593879889948761E00E9433
:100430000A08F301838161E00E940A08F3018481C4
:1004400061E00E940A08112319F0F301158603C028
:1004500080E1F3018587C30160E141E020E00E9473
:100460008A01CF91DF911F910F91EF90CF90AF90C4
:100470008F907F906F9008958F92AF92CF92DF927E
:10048000EF92FF920F931F93CF93DF93DC01362FF0
:10049000542F722F102FFE2CDC2C8A2C80E092E03F
:1004A00011969C938E9300D000D0EDB7FEB7319695
:1004B000CDB7DEB71982118212821382CD0161E0BD
:1004C000432F252F072FE12ECF2CAD2C0E94F701B3
:1004D0000F900F900F900F90DF91CF911F910F9180
:1004E000FF90EF90DF90CF90AF908F900895AF92F4
:1004F000CF92EF920F9388E192E067E04BE02AE021
:1005000005E074E0E72E53E0C52E32E0A32E0E94F2
:100510003C020F91EF90CF90AF9008958091DF0152
:1005200060E00E942A088091E10161E00E942A08AF
:100530006091E3017091E401882777FD8095982F01
:100540000E9477078091DF0161E00E942A08809174
:10055000E10161E00E942A086091E3017091E401E9
:10056000882777FD8095982F0E9477078091DF017B
:1005700061E00E942A088091E10160E00E942A085F
:100580006091E3017091E401882777FD8095982FB1
:100590000E9477078091DF0160E00E942A08809125
:1005A000E10160E00E942A086091E3017091E4019A
:1005B000882777FD8095982F0E947707089580916E
:1005C000DF0161E00E942A088091E10161E00E9460
:1005D0002A086091E3017091E401882777FD8095F6
:1005E000982F0E9477078091DF0160E00E942A081F
:1005F0008091E10161E00E942A086091E30170911D
:10060000E401882777FD8095982F0E9477078091D5
:10061000DF0160E00E942A088091E10160E00E9411
:100620002A086091E3017091E401882777FD8095A5
:10063000982F0E9477078091DF0161E00E942A08CD
:100640008091E10160E00E942A086091E3017091CD
:10065000E401882777FD8095982F0E9477070895F9
:100660008091490290914A02019690934A028093A8
:100670004902823491050CF45AC020913302309122
:1006800034028091ED019091EE012817390709F0AD
:100690004EC020913102309132028091EB01909155
:1006A000EC012817390709F042C088E192E060E0C8
:1006B00041E00E94530188E192E060E071E00E9415
:1006C0003D0A0E948E020E948E020E948E020E94AB
:1006D0008E020E948E0268EB7BE080E090E00E9438
:1006E00077070E94DF020E94DF020E94DF020E9461
:1006F000DF020E94DF0210924A02109249028091AA
:10070000ED019091EE0105969093EE018093ED013D
:10071000CC9769F41092EE011092ED018091EB01FB
:100720009091EC0101969093EC018093EB01089578
:100730000F931F938091DB0161E00E942A0864EF10
:1007400071E080E090E00E9477078091DB0160E03B
:100750000E942A0808E112E0C80160E040E00E941F
:100760005301C80165E171E00E943D0A1F910F919C
:1007700008950F931F938091DD0161E00E942A0884
:1007800064EF71E080E090E00E9477078091DD01E6
:1007900060E00E942A0808E112E0C80160E040E041
:1007A0000E945301C80161E271E00E943D0A1F915D
:1007B0000F910895AF92BF92CF92DF92EF92FF9286
:1007C0000F931F9388E192E060E040E00E945301A4
:1007D00088E192E06DE271E00E943D0A80914B0257
:1007E00090914C02009749F48091EF019091F001B3
:1007F000A091F101B091F2010AC0019781F48091BA
:10080000F3019091F401A091F501B091F60180936C
:100810003D0290933E02A0933F02B0934002A0900D
:100820003D02B0903E02C0903F02D0904002E09066
:10083000F701F090F8010091F9011091FA01C80157
:10084000B70120E030E040E05FE30E94900D9B01A3
:10085000AC01C601B5010E94D90B609341027093AF
:1008600042028093430290934402C801B70120E002
:1008700030E040E05FEB0E94900D9B01AC01C601AF
:10088000B5010E94D90B6093450270934602809394
:100890004702909348028AED92E062E471E00E9480
:1008A0003D0A40913D0250913E0260913F0270919D
:1008B00040028AED92E00E94CD0B88E192E060E078
:1008C00041E00E94530188E192E060E671E00E94FD
:1008D0003D0A40913D0250913E0260913F0270916D
:1008E000400288E192E00E94C90B8AED92E065E641
:1008F00071E00E943D0A4091F7015091F80160912A
:10090000F9017091FA018AED92E00E94CD0B88E125
:1009100092E06DE971E00E943D0A4091F70150912B
:10092000F8016091F9017091FA0188E192E00E946A
:10093000C90B68EB7BE080E090E00E94770788E1DC
:1009400092E00E9482018AED92E066EA71E00E94E4
:100950003D0A6091EB017091EC018AED92E00E94FA
:100960002A0B8AED92E06EEA71E00E943D0A6091E6
:10097000ED017091EE018AED92E00E94320B0E942F
:10098000B90360ED77E080E090E00E9477071F9167
:100990000F91FF90EF90DF90CF90BF90AF900895B0
:1009A0000F931F93CF93DF938091D90161E00E9451
:1009B0002A0800E010E00CC08091D7010E94EC07EB
:1009C000C80FD91FD0932C02C0932B020F5F1F4F6B
:1009D0006091E5017091E601C0912B02D0912C024B
:1009E000061717074CF3CE010E94120E70932C02CB
:1009F00060932B02DF91CF911F910F910895AF92D9
:100A0000BF92CF92DF92EF92FF920F931F93CF93FB
:100A1000DF930E9469075B016C018091E70190916F
:100A2000E801A091E901B091EA01A80EB91ECA1E21
:100A3000DB1EA0922D02B0922E02C0922F02D09205
:100A40003002C601B50120E83EEE46E350E00E94C8
:100A5000250ECA01B90128E130E040E050E00E94D3
:100A6000250EEB01709332026093310268307105FC
:100A700028F410924C0210924B0206C081E090E0E4
:100A800090934C0280934B02C601B50120E83EEEE4
:100A900046E350E00E94250E162F072FF82EE92E70
:100AA00020E63AEE40E050E00E94250E30933402FA
:100AB00020933302612F702F8F2D9E2D20E63AEE6A
:100AC00040E050E00E94250E28EE33E040E050E088
:100AD0000E94250E3093360220933502C601B501DF
:100AE00028EE33E040E050E00E94250E709338027B
:100AF000609337028AED92E0BE010E942A0B8AEDD4
:100B000092E06EEA71E00E943D0A609133027091BA
:100B100034028AED92E00E942A0B8AED92E06EEA9E
:100B200071E00E943D0A60913502709136028AEDB3
:100B300092E00E942A0B8AED92E06EEA71E00E9438
:100B40003D0A60913702709138028AED92E00E946E
:100B50002A0B8AED92E060EB71E00E943D0ADF9182
:100B6000CF911F910F91FF90EF90DF90CF90BF90AA
:100B7000AF90089560912B0270912C02882777FD29
:100B80008095982F0E94DC0C20E030E04CED52E480
:100B90000E94900D20E030E040E85AE30E94900D62
:100BA0006093390270933A0280933B0290933C0227
:100BB00020E030E040E050E00E943D0C882309F442
:100BC00056C00E94FF0460912B0270912C028AEDA6
:100BD00092E00E942A0B8AED92E065EB71E00E94A0
:100BE0003D0A4091390250913A0260913B02709166
:100BF0003C028AED92E00E94C90B8AED92E069EB1B
:100C000071E00E945C0A88E192E060E041E00E94AD
:100C1000530188E192E06BEB71E00E943D0A409144
:100C2000390250913A0260913B0270913C0288E196
:100C300092E00E94C90B88E192E06EEB71E00E94A5
:100C40003D0A6091EB017091EC0188E192E00E9415
:100C50002A0B88E192E06EEA71E00E943D0A609101
:100C6000ED017091EE0188E192E00E942A0B089557
:100C70006F927F928F929F92AF92BF92CF92DF92AC
:100C8000EF92FF920F931F93CF93DF930E94DA03AB
:100C9000C0E0D0E068EE73E080E090E00E9477076B
:100CA0000E94D0040E94BA050E94300380914B023A
:100CB00090914C02009749F48091EF019091F001DE
:100CC000A091F101B091F2010AC0019781F48091E5
:100CD000F3019091F401A091F501B091F601809398
:100CE0003D0290933E02A0933F02B0934002609079
:100CF0003D0270903E0280903F0290904002E09052
:100D0000F701F090F8010091F9011091FA01C80182
:100D1000B70120E030E040E05FE30E94900D9B01CE
:100D2000AC01C401B3010E94D90B5B016C0160935B
:100D30004102709342028093430290934402C8019F
:100D4000B70120E030E040E05FEB0E94900D9B0196
:100D5000AC01C401B3010E94D90B3B014C0160936B
:100D60004502709346028093470290934802E090B8
:100D70003902F0903A0200913B0210913C02C80106
:100D8000B701A60195010E948C0D18163CF420971E
:100D900029F40E949803C1E0D0E07CCFC801B701DC
:100DA000A40193010E943D0C88230CF073CF21977E
:100DB00009F06ECF0E94B9036BCF0F931F93809100
:100DC000DD0161E00E940A088091DB0161E00E9480
:100DD0000A088091D90161E00E940A088091DF0130
:100DE00061E00E940A088091E10161E00E940A0826
:100DF00083E00E94E9070AED12E0C80140E855E2ED
:100E000060E070E00E94B408C8010E94AD09C8010A
:100E100067EC71E00E945C0A08E112E0C80162E040
:100E200044E120E00E948A01C8010E9482011F91D2
:100E30000F9108950E94AF070E94DD060E943806B8
:100E4000FDCF1F920F920FB60F9211242F933F9355
:100E50008F939F93AF93BF938091510290915202D1
:100E6000A0915302B0915402309155020196A11DF8
:100E7000B11D232F2D5F2D3720F02D570196A11D79
:100E8000B11D209355028093510290935202A0937A
:100E90005302B093540280914D0290914E02A09162
:100EA0004F02B09150020196A11DB11D80934D02D9
:100EB00090934E02A0934F02B0935002BF91AF9116
:100EC0009F918F913F912F910F900FBE0F901F9088
:100ED00018958FB7F89420915102309152024091A9
:100EE0005302509154028FBFB901CA010895EF9285
:100EF000FF920F931F937B018C018FB7F894409161
:100F000051025091520260915302709154028FBF6E
:100F10002FB7F8948091510290915202A091530200
:100F2000B09154022FBF841B950BA60BB70BE8168C
:100F3000F9060A071B0760F71F910F91FF90EF90CA
:100F40000895019759F0FC01EE0FFF1FEE0FFF1FF0
:100F500032978FB7F8943197F1F78FBF089578944F
:100F600084B5826084BD84B5816084BD85B58260AE
:100F700085BD85B5816085BDEEE6F0E0808181604C
:100F80008083E1E8F0E080818260808380818160FD
:100F90008083E0E8F0E0808181608083E1EBF0E035
:100FA000808184608083E0EBF0E0808181608083D9
:100FB000EAE7F0E0808184608083808182608083C2
:100FC0008081816080838081806880831092C100ED
:100FD00008958093FB0108958F709091FB01929585
:100FE000990F990F907C982B90937C0080917A00B8
:100FF000806480937A0080917A0086FDFCCF2091F6
:10100000780040917900942F80E030E0282B392B34
:10101000C9010895282F30E0C90186569F4FFC0171
:1010200094912A573F4FF9018491882391F0E82F3A
:10103000F0E0EE0FFF1FE859FF4FA591B491662332
:1010400029F48C91909589238C9308958C91892B08
:101050008C930895482F50E0CA0182559F4FFC01A0
:101060002491CA0186569F4FFC0194914A575F4FC5
:10107000FA0134913323D1F1222331F1233021F4C9
:10108000809180008F7705C0243031F480918000FA
:101090008F7D8093800018C0213019F484B58F773C
:1010A00004C0223021F484B58F7D84BD0DC026306C
:1010B00021F48091B0008F7705C0273029F480910A
:1010C000B0008F7D8093B000E32FF0E0EE0FFF1FA4
:1010D000EE58FF4FA591B491662329F48C91909519
:1010E00089238C9308958C91892B8C9308951F925A
:1010F0000F920FB60F9211242F933F934F935F934C
:101100006F937F938F939F93AF93BF93EF93FF93CF
:101110004091C600E091D602F091D702CF0101962E
:1011200060E870E00E94120E9C018091D8029091BC
:10113000D9022817390739F0EA5AFD4F4083309316
:10114000D7022093D602FF91EF91BF91AF919F916B
:101150008F917F916F915F914F913F912F910F9060
:101160000FBE0F901F9018955F926F927F928F9293
:101170009F92AF92BF92CF92DF92EF92FF920F9326
:101180001F93CF93DF93EC013A014B01413482E48A
:1011900058078FE0680780E078070CF07FC060E8B0
:1011A00074E88EE190E0A40193010E94470E215063
:1011B000304040405040CA01B90122E030E040E0F8
:1011C00050E00E94470E59016A01A6019501209541
:1011D00030954095509594E0220F331F441F551FC2
:1011E0009A95D1F760E074E284EF90E00E94470E98
:1011F000CA01B9012FEF30E040E050E00E94F30D4A
:10120000A40193010E94470EC90181509F4F1816F7
:1012100019061CF4522E5A9403C055245394521AA2
:1012200060E079E08DE390E0A40193010E94470E15
:101230002150304040405040CA01B90122E030E026
:1012400040E050E00E94470E209530954095509523
:1012500083E0220F331F441F551F8A95D1F760E0AA
:1012600074E284EF90E00E94470ECA01B9012FEFAB
:1012700030E040E050E00E94F30DA40193010E9491
:10128000470EC90181509F4F181619061CF4822F72
:10129000815002C081E0821B851500F5E885F98543
:1012A00081E090E00A8802C0880F991F0A94E2F753
:1012B000808360E079E08DE390E0A40193010E94D7
:1012C000470E2150304040405040CA01B90122E051
:1012D00030E040E050E00E94470E04C0E885F98508
:1012E00010829501EC81FD813083EE81FF812083A6
:1012F000EA85FB85208141E050E0CA010E8402C0EE
:10130000880F991F0A94E2F7282B2083EA85FB8532
:101310002081CA010F8402C0880F991F0A94E2F746
:10132000282B2083EA85FB858081088802C0440F32
:10133000551F0A94E2F7842B8083DF91CF911F9190
:101340000F91FF90EF90DF90CF90BF90AF909F9064
:101350008F907F906F905F900895DC011296ED91D1
:10136000FC911397EE57FF4F808191819293829366
:101370000895FC01A085B18521898C9190E0022E11
:1013800002C0959587950A94E2F780FFF6CF048412
:10139000F585E02D6083089582E192E09093DB0271
:1013A0008093DA0286E592E09093DD028093DC027E
:1013B00085EC90E09093DF028093DE0284EC90E075
:1013C0009093E1028093E00280EC90E09093E3023E
:1013D0008093E20281EC90E09093E5028093E40236
:1013E00086EC90E09093E7028093E60284E080939D
:1013F000E80283E08093E90287E08093EA0285E0D7
:101400008093EB0281E08093EC0208950F931F9389
:10141000CF93DF938C01EB0109C02196D801ED91A8
:10142000FC910190F081E02DC80109956881662347
:10143000A1F7DF91CF911F910F910895EF92FF9245
:101440000F931F93CF93DF938C017B01EA010CC0B4
:10145000D7016D917D01D801ED91FC910190F08152
:10146000E02DC80109952197209791F7DF91CF9141
:101470001F910F91FF90EF900895DC01ED91FC9189
:101480000280F381E02D099508950F931F938C013D
:10149000DC01ED91FC910190F081E02D6DE009956A
:1014A000D801ED91FC910190F081E02DC8016AE036
:1014B00009951F910F9108950F931F938C010E941E
:1014C0003D0AC8010E94450A1F910F9108952F926D
:1014D0003F924F925F926F927F928F929F92AF92C4
:1014E000BF92CF92DF92EF92FF920F931F93DF9301
:1014F000CF93CDB7DEB7A0970FB6F894DEBF0FBE7F
:10150000CDBF1C016A017B014115510561057105C3
:1015100049F4DC01ED91FC910190F081E02D60E354
:10152000099554C0882499245401422E55246624D8
:10153000772401E010E00C0F1D1F080D191DC701D5
:10154000B601A30192010E94250EF8016083089460
:10155000811C911CA11CB11CC701B601A301920101
:101560000E94250EC901DA016C017D01C114D1046C
:10157000E104F104F1F681E0E82EF12CEC0EFD1E01
:10158000E80CF91C3E010894611C711CD501C401D2
:101590000197A109B1096C01C818D90814C0F60156
:1015A000EE0DFF1D60816A3010F4605D01C0695C62
:1015B000D101ED91FC910190F081E02DC1010995DF
:1015C0000894E108F1086E147F0449F7A0960FB65D
:1015D000F894DEBF0FBECDBFCF91DF911F910F9169
:1015E000FF90EF90DF90CF90BF90AF909F908F9043
:1015F0007F906F905F904F903F902F9008952AE0DA
:101600000E94670A0895EF92FF920F931F93CF9362
:10161000DF93EC017A018B0177FF0FC0E881F9813C
:101620000190F081E02D6DE2099510950095F09400
:10163000E094E11CF11C011D111DCE01B801A701B0
:101640002AE00E94670ADF91CF911F910F91FF90CE
:10165000EF900895AB01662757FD6095762F0E94A5
:10166000030B08950F931F938C01AB01662757FD61
:101670006095762F0E94030BC8010E94450A1F91B6
:101680000F9108959F92AF92BF92CF92DF92EF9207
:10169000FF920F931F93CF93DF93EC017A018B019D
:1016A000922ECB01BA0120E030E040E050E00E94F1
:1016B0003D0C882364F4E881F9810190F081E02DEC
:1016C000CE016DE2099517FB109517F9109520E0F2
:1016D00030E040E05FE3AA240BC0CA01B90120E07A
:1016E00030E040E251E40E94410C9B01AC01A39424
:1016F000A91498F3C801B7010E94D90B5B016C01D2
:101700000E94AE0C7B018C01CE01B801A7010E94A2
:10171000FF0A992029F0CE0165ED71E00E943D0A93
:10172000C801B7010E94DA0C9B01AC01C601B501EA
:101730000E94D80B20C020E030E040E251E40E943B
:10174000900D7B018C010E94A90C5B016C01CC24E3
:10175000B7FCC094DC2CCE01B601A5010E94030B9E
:10176000C601B5010E94DC0C9B01AC01C801B701A8
:101770000E94D80B9A949920F1F6DF91CF911F9196
:101780000F91FF90EF90DF90CF90BF90AF909F9020
:10179000089522E00E94420B08950F931F938C013D
:1017A0000E94C90BC8010E94450A1F910F9108951C
:1017B0005058BB27AA270ED075C166D130F06BD127
:1017C00020F031F49F3F11F41EF45BC10EF4E0955C
:1017D000E7FB51C1E92F77D180F3BA17620773078E
:1017E0008407950718F071F49EF58FC10EF4E0950B
:1017F0000B2EBA2FA02D0B01B90190010C01CA01CB
:10180000A0011124FF27591B99F0593F50F4503E75
:1018100068F11A16F040A22F232F342F4427585F67
:10182000F3CF469537952795A795F0405395C9F77F
:101830007EF41F16BA0B620B730B840BBAF0915037
:10184000A1F0FF0FBB1F661F771F881FC2F70EC0D6
:10185000BA0F621F731F841F48F4879577956795A9
:10186000B795F7959E3F08F0B3CF9395880F08F092
:101870009927EE0F979587950895D9D008F481E0C0
:1018800008950CD00FC107D140F0FED030F021F404
:101890005F3F19F0F0C0511139C1F3C014D198F372
:1018A0009923C9F35523B1F3951B550BBB27AA27E1
:1018B00062177307840738F09F5F5F4F220F331F53
:1018C000441FAA1FA9F333D00E2E3AF0E0E830D01F
:1018D00091505040E695001CCAF729D0FE2F27D022
:1018E000660F771F881FBB1F261737074807AB07F0
:1018F000B0E809F0BB0B802DBF01FF2793585F4F65
:101900002AF09E3F510568F0B6C000C15F3FECF37E
:10191000983EDCF3869577956795B795F7959F5F29
:10192000C9F7880F911D9695879597F90895E1E07D
:10193000660F771F881FBB1F621773078407BA07DC
:1019400020F0621B730B840BBA0BEE1F88F7E09537
:10195000089504D06894B111D9C00895BCD088F01E
:101960009F5790F0B92F9927B751A0F0D1F0660F8B
:10197000771F881F991F1AF0BA95C9F712C0B130A6
:1019800081F0C3D0B1E00895C0C0672F782F8827B9
:10199000B85F39F0B93FCCF3869577956795B395E5
:1019A000D9F73EF490958095709561957F4F8F4F54
:1019B0009F4F0895E89409C097FB3EF49095809559
:1019C000709561957F4F8F4F9F4F9923A9F0F92F05
:1019D00096E9BB279395F695879577956795B79583
:1019E000F111F8CFFAF4BB0F11F460FF1BC06F5F69
:1019F0007F4F8F4F9F4F16C0882311F096E911C07B
:101A0000772321F09EE8872F762F05C0662371F09B
:101A100096E8862F70E060E02AF09A95660F771FAF
:101A2000881FDAF7880F9695879597F90895990F8B
:101A30000008550FAA0BE0E8FEEF16161706E80798
:101A4000F907C0F012161306E407F50798F0621BB9
:101A5000730B840B950B39F40A2661F0232B242B8E
:101A6000252B21F408950A2609F4A140A6958FEFAD
:101A7000811D811D089597F99F6780E870E060E0FF
:101A800008959FEF80EC089500240A941616170617
:101A900018060906089500240A941216130614065F
:101AA00005060895092E0394000C11F4882352F0C2
:101AB000BB0F40F4BF2B11F460FF04C06F5F7F4F7A
:101AC0008F4F9F4F089557FD9058440F551F59F061
:101AD0005F3F71F04795880F97FB991F61F09F3F1B
:101AE00079F087950895121613061406551FF2CF44
:101AF0004695F1DF08C0161617061806991FF1CF94
:101B000086957105610508940895E894BB276627BA
:101B10007727CB0197F908958ADF08F48FEF0895AE
:101B20000BD0C0CFB1DF28F0B6DF18F0952309F055
:101B3000A2CFA7CF1124EACFC6DFA0F3959FD1F3A0
:101B4000950F50E0551F629FF001729FBB27F00D6B
:101B5000B11D639FAA27F00DB11DAA1F649F6627C0
:101B6000B00DA11D661F829F2227B00DA11D621F0F
:101B7000739FB00DA11D621F839FA00D611D221FC9
:101B8000749F3327A00D611D231F849F600D211DAD
:101B9000822F762F6A2F11249F5750408AF0E1F050
:101BA00088234AF0EE0FFF1FBB1F661F771F881F99
:101BB00091505040A9F79E3F510570F05CCFA6CFE1
:101BC0005F3FECF3983EDCF3869577956795B79584
:101BD000F795E7959F5FC1F7FE2B880F911D9695AE
:101BE000879597F90895629FD001739FF001829FB6
:101BF000E00DF11D649FE00DF11D929FF00D839F9C
:101C0000F00D749FF00D659FF00D9927729FB00D38
:101C1000E11DF91F639FB00DE11DF91FBD01CF014B
:101C20001124089597FB092E07260AD077FD04D0CA
:101C300049D006D000201AF4709561957F4F089521
:101C4000F6F7909581959F4F0895A1E21A2EAA1B51
:101C5000BB1BFD010DC0AA1FBB1FEE1FFF1FA2175C
:101C6000B307E407F50720F0A21BB30BE40BF50B59
:101C7000661F771F881F991F1A9469F760957095E2
:101C8000809590959B01AC01BD01CF01089597FB14
:101C9000092E05260ED057FD04D0D7DF0AD0001C30
:101CA00038F450954095309521953F4F4F4F5F4FF9
:101CB0000895F6F790958095709561957F4F8F4FB9
:101CC0009F4F0895AA1BBB1B51E107C0AA1FBB1F52
:101CD000A617B70710F0A61BB70B881F991F5A95B8
:101CE000A9F780959095BC01CD010895EE0FFF1FD7
:0C1CF0000590F491E02D0994F894FFCFCA
:101CFC00202020202046756574746572756E6721EE
:101D0C0020202020004865697A756E672061757304
:101D1C00004865697A756E672065696E004F2048CA
:101D2C0041492C20492043414E2048415A204C43E4
:101D3C004400446965206F7074696D616C65205452
:101D4C00656D70657261747572206973743A2000E8
:101D5C00545F6F3A00446965205370616E6E652064
:101D6C007A772E206D696E696D616C657220756E67
:101D7C0064206D6178696D616C65722054656D705D
:101D8C00657261747572206973743A200020537007
:101D9C00616E6E653A0046757474657220003A0087
:101DAC002020202000203D20004300543A002046F3
:101DBC007574746572200023232320526561647945
:101DCC0020232323002E00010008000D000C000925
:101DDC0000060032003200205C45020A0028000098
:101DEC0000A0410000A0410000803F010000000065
:101DFC004101060A1E0A00004000140054000000B5
:081E0C000000B909060A1E0AD4
:00000001FF
