:100000000C9463000C948B000C948B000C948B006C
:100010000C948B000C948B000C948B000C948B0034
:100020000C948B000C948B000C948B000C948B0024
:100030000C948B000C948B000C948B000C948B0014
:100040000C94DF060C948B000C9476080C948B00B7
:100050000C948B000C948B000C948B000C948B00F4
:100060000C948B000C948B000000000024002700EF
:100070002A0000000000250028002B0000000000DE
:1000800023002600290004040404040404040202DA
:100090000202020203030303030301020408102007
:1000A0004080010204081020010204081020000012
:1000B0000007000201000003040600000000000029
:1000C00000004502CB0911241FBECFEFD8E0DEBFF0
:1000D000CDBF11E0A0E0B1E0E4ECFCE102C005908E
:1000E0000D92A83DB107D9F712E0A8EDB1E001C02B
:1000F0001D92AB3AB107E1F710E0C6ECD0E004C0C6
:100100002297FE010E945C0EC23CD107C9F70E94F3
:10011000D8060C94600E0C940000FF920F931F936E
:10012000CF93DF93EC01F62E80E090E0442311F0B2
:1001300081E090E08C0102608C8161E00E94E80720
:100140008B816A8140E0202F0E9435088B816A8173
:1001500040E02F2D0E9435088C8160E00E94E80766
:100160008C8161E00E94E80798012D7F8B816A8174
:1001700040E00E9435088B816A8140E02F2D0E946B
:1001800035088C8160E00E94E80781E090E00E94E1
:100190005F078C8161E00E94E8078B816A8140E003
:1001A000202F0E9435088B816A8140E02F2D0E940C
:1001B00035088C8160E00E94E80784E690E00E94A8
:1001C0005F07DF91CF911F910F91FF900895EF92FC
:1001D000FF920F931F93CF93DF93EC01F62E0985C7
:1001E00041110160802F90E08C0102608C8161E000
:1001F0000E94E807F29480EFF822EF2CE02A8B812E
:100200006A8140E02E2D0E9435088C8160E00E94BA
:10021000E80781E090E00E945F078C8161E00E9426
:10022000E8070D7FF02A8B816A8140E02F2D0E9424
:1002300035088C8160E00E94E80781E090E00E9430
:100240005F078C8161E00E94E8078B816A8140E052
:100250002E2D0E9435088C8160E00E94E80784E61C
:1002600090E00E945F07DF91CF911F910F91FF9067
:10027000EF9008950F931F93CF93DF93EC01162F08
:10028000042F8E8184FF04C0CE010E948D000EC019
:1002900070E094E0759567959A95E1F7CE010E941C
:1002A000E700CE01612F402F0E94E700DF91CF9140
:1002B0001F910F91089541E00E943A01089540E096
:1002C0000E943A010895FC016781862F846087832C
:1002D0006C60CF010E945F010895DF93CF93CDB78B
:1002E000DEB728970FB6F894DEBF0FBECDBF9C01D6
:1002F000FE013196A5ECB1E088E00D9001928150AD
:10030000E1F7F9018385841710F4482F4150E42F59
:10031000F0E0EE0FFF1FEC0FFD1F8181680F60689A
:10032000C9010E945F0128960FB6F894DEBF0FBE88
:10033000CDBFCF91DF91089561E00E945F0180ED14
:1003400097E00E945F070895CF93DF93EC0142305E
:1003500018F08E8188608E834B871C86222329F0BB
:10036000413019F48E8184608E8380E593EC0E9485
:100370005F078B816A8140E020E00E9435088B8115
:100380006A8140E020E00E9435086E8164FD21C052
:10039000CE0163E040E00E94E70084E991E10E9421
:1003A0005F07CE0163E040E00E94E70084E991E14D
:1003B0000E945F07CE0163E040E00E94E70086E90B
:1003C00090E00E945F07CE0162E040E00E94E700FB
:1003D00016C06062CE010E945F0184E991E10E9433
:1003E0005F076E816062CE010E945F0186E990E046
:1003F0000E945F076E816062CE010E945F016E8184
:100400006062CE010E945F0184E08F83CE010E9472
:100410006301CE010E949C0182E08887CE0166E0E4
:100420000E945F01DF91CF9108950F93CF93DF93E7
:10043000EC01862F6B834A832C8394E0998761E0DB
:100440000E94C8078A8161E00E94C8078C8161E030
:100450000E94C807053010F41E8202C080E18E831E
:10046000CE0160E141E020E00E94A401DF91CF9144
:100470000F9108950F93FC018FEB91E0918380839E
:10048000CF010E9415020F9108950F938AED91E01C
:1004900066E043E025E004E00E943A020F910895EF
:1004A00080919A0160E00E94E80780919C0161E0E0
:1004B0000E94E80760919E0170919F01882777FD57
:1004C0008095982F0E94350780919A0161E00E94E3
:1004D000E80780919C0161E00E94E80760919E011D
:1004E00070919F01882777FD8095982F0E9435078E
:1004F00080919A0161E00E94E80780919C0160E090
:100500000E94E80760919E0170919F01882777FD06
:100510008095982F0E94350780919A0160E00E9493
:10052000E80780919C0160E00E94E80760919E01CD
:1005300070919F01882777FD8095982F0E9435073D
:10054000089580919A0161E00E94E80780919C01E2
:1005500061E00E94E80760919E0170919F018827E9
:1005600077FD8095982F0E94350780919A0160E071
:100570000E94E80780919C0161E00E94E807609179
:100580009E0170919F01882777FD8095982F0E948A
:10059000350780919A0160E00E94E80780919C01F4
:1005A00060E00E94E80760919E0170919F0188279A
:1005B00077FD8095982F0E94350780919A0161E020
:1005C0000E94E80780919C0160E00E94E80760912A
:1005D0009E0170919F01882777FD8095982F0E943A
:1005E0003507089580910502909106020196909337
:1005F000060280930502823491050CF464C02091B8
:10060000F3013091F4018091A8019091A90128177C
:10061000390709F058C02091F1013091F201809121
:10062000A6019091A7012817390709F04CC08AED5F
:1006300091E060E041E00E946D018AED91E060E0B0
:1006400071E00E943C0A8091980161E00E94E807F5
:100650000E94A1020E94A1020E94A1020E94A10286
:100660000E94A10268EB7BE080E090E00E943507E9
:100670000E9450020E9450020E9450020E945002AA
:100680000E9450028091980160E00E94E807109259
:100690000602109205028091A8019091A901059689
:1006A0009093A9018093A801CC9769F41092A901B5
:1006B0001092A8018091A6019091A70101969093B4
:1006C000A7018093A60108950F931F938091940131
:1006D00061E00E94E80764EF71E080E090E00E9432
:1006E00035078091940160E00E94E8070AED11E06F
:1006F000C80160E040E00E946D01C80165E171E061
:100700000E943C0A1F910F9108950F931F938091AF
:10071000960161E00E94E80764EF71E080E090E0FC
:100720000E9435078091960160E00E94E8070AED7B
:1007300011E0C80160E040E00E946D01C80161E283
:1007400071E00E943C0A1F910F910895AF92BF92F1
:10075000CF92DF92EF92FF920F931F9380919801B7
:1007600060E00E94E8078AED91E060E040E00E94CE
:100770006D018AED91E06DE271E00E943C0A80918A
:10078000070290910802009749F48091B20190917C
:10079000B301A091B401B091B5010AC0019781F4F1
:1007A0008091B6019091B701A091B801B091B901C3
:1007B0008093AE019093AF01A093B001B093B101CB
:1007C000A090AE01B090AF01C090B001D090B10147
:1007D000E090AA01F090AB010091AC011091AD0145
:1007E000C801B70120E030E040E05FE30E94740DF3
:1007F0009B01AC01C601B5010E94BD0B6093FD01D8
:100800007093FE018093FF0190930002C801B7012D
:1008100020E030E040E05FEB0E94740D9B01AC01F2
:10082000C601B5010E94BD0B6093010270930202E4
:1008300080930302909304028AED91E060E041E02E
:100840000E946D018AED91E062E471E00E943C0A31
:100850004091AE015091AF016091B0017091B10132
:100860008AED91E00E94B80B8AED91E067E471E0B7
:100870000E943C0A4091AA015091AB016091AC01E9
:100880007091AD018AED91E00E94B80B68EB7BE0BE
:1008900080E090E00E9435078AED91E00E949C0183
:1008A0000E9485036091A4017091A501882777FDBE
:1008B0008095982F20E63AEE40E050E00E94D70D58
:1008C0007B018C016091A2017091A301882777FDC3
:1008D0008095982F20E83EEE46E350E00E94D70D29
:1008E000E60EF71E081F191FE092E901F092EA01D7
:1008F0000093EB011093EC0160ED77E080E090E075
:100900000E9435071F910F91FF90EF90DF90CF90DD
:10091000BF90AF9008950F931F93CF93DF9300E0A4
:1009200010E00CC08091D8010E94AA07C80FD91FFF
:10093000D093E801C093E7010F5F1F4F6091A001C2
:100940007091A101C091E701D091E8010617170746
:100950004CF3CE010E94F60D7093E8016093E7011D
:10096000DF91CF911F910F910895AF92BF92CF92D7
:10097000DF92EF92FF920F931F930E9427075B0174
:100980006C018091E9019091EA01A091EB01B09195
:10099000EC01A80EB91ECA1EDB1EA092ED01B0929A
:1009A000EE01C092EF01D092F001C601B50120E83E
:1009B0003EEE46E350E00E94090ECA01B90128E16B
:1009C00030E040E050E00E94090E7093F201609325
:1009D000F1016830710528F41092080210920702A4
:1009E00006C081E090E09093080280930702C60160
:1009F000B50120E83EEE46E350E00E94090E162FB6
:100A0000072FF82EE92E20E63AEE40E050E00E9453
:100A1000090E3093F4012093F301612F702F8F2D75
:100A20009E2D20E63AEE40E050E00E94090E28EEAE
:100A300033E040E050E00E94090E3093F60120932D
:100A4000F501C601B50128EE33E040E050E00E9418
:100A5000090E7093F8016093F7018AED91E060E070
:100A600040E00E946D018091090290910A02019775
:100A700031F48AED91E060E571E00E943C0A8091DA
:100A8000090290910A02892B31F48AED91E060E627
:100A900071E00E943C0A6091F1017091F2018AEDCF
:100AA00091E00E94290B8AED91E060E771E00E94DD
:100AB0003C0A6091F3017091F4018AED91E00E948B
:100AC000290B1F910F91FF90EF90DF90CF90BF9077
:100AD000AF9008956091E7017091E801882777FD54
:100AE0008095982F0E94C00C20E030E04CED52E43D
:100AF0000E94740D20E030E040E85AE30E94740D3B
:100B00006093F9017093FA018093FB019093FC01CB
:100B100020E030E040E050E00E94210C882309F4FE
:100B200056C00E94B5046091E7017091E80188E920
:100B300092E00E94290B88E992E062E771E00E944E
:100B40003C0A4091F9015091FA016091FB017091CA
:100B5000FC0188E992E00E94B80B88E992E066E720
:100B600071E00E945B0A8AED91E060E041E00E9442
:100B70006D018AED91E068E771E00E943C0A4091C6
:100B8000F9015091FA016091FB017091FC018AED2D
:100B900091E00E94B80B8AED91E06BE771E00E9452
:100BA0003C0A6091A6017091A7018AED91E00E9434
:100BB000290B8AED91E060E771E00E943C0A6091A8
:100BC000A8017091A9018AED91E00E94290B089576
:100BD0006F927F928F929F92AF92BF92CF92DF924D
:100BE000EF92FF920F931F93CF93DF930E94A60380
:100BF000C1E0D0E068EE73E080E090E00E9435074D
:100C00000E948B040E946A050E94F20280910702F2
:100C100090910802009749F48091B2019091B3013C
:100C2000A091B401B091B5010AC0019781F48091FF
:100C3000B6019091B701A091B801B091B90180932C
:100C4000AE019093AF01A093B001B093B101609059
:100C5000AE017090AF018090B0019090B101E09032
:100C6000AA01F090AB010091AC011091AD01C80157
:100C7000B70120E030E040E05FE30E94740D9B018B
:100C8000AC01C401B3010E94BD0B5B016C01609318
:100C9000FD017093FE018093FF0190930002C80153
:100CA000B70120E030E040E05FEB0E94740D9B0153
:100CB000AC01C401B3010E94BD0B3B014C01609328
:100CC0000102709302028093030290930402E09069
:100CD000F901F090FA010091FB011091FC01C801AB
:100CE000B701A60195010E94700D18166CF4809151
:100CF000090290910A02892B39F40E946403D0936F
:100D00000A02C093090276CFC801B701A40193017A
:100D10000E94210C88230CF06DCF809109029091E4
:100D20000A02019709F066CF0E94850310920A0219
:100D3000109209025FCF0F931F938091960161E09B
:100D40000E94C8078091940161E00E94C8078091C9
:100D5000980161E00E94C80780919A0161E00E94B9
:100D6000C80780919C0161E00E94C80783E00E944F
:100D7000A70708E912E0C80140E855E260E070E02A
:100D80000E94B308C8010E94AC09C80164E871E080
:100D90000E945B0A0AED11E0C80162E044E120E034
:100DA0000E94A401C8010E949C011F910F91089507
:100DB0000E946D070E949B060E94E805FDCF1F92CE
:100DC0000F920FB60F9211242F933F938F939F93FF
:100DD000AF93BF9380910F0290911002A0911102E6
:100DE000B0911202309113020196A11DB11D232F63
:100DF0002D5F2D3720F02D570196A11DB11D209399
:100E0000130280930F0290931002A0931102B093EB
:100E1000120280910B0290910C02A0910D02B091F0
:100E20000E020196A11DB11D80930B0290930C023E
:100E3000A0930D02B0930E02BF91AF919F918F913D
:100E40003F912F910F900FBE0F901F9018958FB765
:100E5000F89420910F0230911002409111025091AC
:100E600012028FBFB901CA010895EF92FF920F934A
:100E70001F937B018C018FB7F89440910F02509122
:100E8000100260911102709112028FBF2FB7F89477
:100E900080910F0290911002A0911102B091120264
:100EA0002FBF841B950BA60BB70BE816F9060A0794
:100EB0001B0760F71F910F91FF90EF900895019726
:100EC00059F0FC01EE0FFF1FEE0FFF1F32978FB797
:100ED000F8943197F1F78FBF0895789484B58260C4
:100EE00084BD84B5816084BD85B5826085BD85B5CE
:100EF000816085BDEEE6F0E0808181608083E1E87D
:100F0000F0E0808182608083808181608083E0E87E
:100F1000F0E0808181608083E1EBF0E0808184609B
:100F20008083E0EBF0E0808181608083EAE7F0E09D
:100F30008081846080838081826080838081816001
:100F400080838081806880831092C100089580939F
:100F5000BA0108958F709091BA019295990F990FE7
:100F6000907C982B90937C0080917A008064809391
:100F70007A0080917A0086FDFCCF20917800409124
:100F80007900942F80E030E0282B392BC901089597
:100F9000282F30E0C90186569F4FFC0194912A57B3
:100FA0003F4FF9018491882391F0E82FF0E0EE0F94
:100FB000FF1FE859FF4FA591B491662329F48C9146
:100FC000909589238C9308958C91892B8C93089507
:100FD000482F50E0CA0182559F4FFC012491CA015D
:100FE00086569F4FFC0194914A575F4FFA01349106
:100FF0003323D1F1222331F1233021F48091800079
:101000008F7705C0243031F4809180008F7D8093EC
:10101000800018C0213019F484B58F7704C02230C5
:1010200021F484B58F7D84BD0DC0263021F48091DC
:10103000B0008F7705C0273029F48091B0008F7DF4
:101040008093B000E32FF0E0EE0FFF1FEE58FF4F4C
:10105000A591B491662329F48C91909589238C9362
:1010600008958C91892B8C930895BF92CF92DF9233
:10107000EF92FF920F931F93CF93DF93E82EF62EFC
:10108000B42EC0E0D0E0022F10E087E0C82ED12CB3
:10109000BB2041F4B8010C2E02C0759567950A94E7
:1010A000E2F70AC0B6016C1B7D0BC80102C0959522
:1010B00087956A95E2F7BC0161708E2D0E94E80762
:1010C0008F2D61E00E94E8078F2D60E00E94E80705
:1010D0002196C830D105E1F6DF91CF911F910F9194
:1010E000FF90EF90DF90CF90BF9008951F920F92E6
:1010F0000FB60F9211242F933F934F935F936F93EB
:101100007F938F939F93AF93BF93EF93FF93409100
:10111000C600E0919402F0919502CF01019660E83B
:1011200070E00E94F60D9C018091960290919702CA
:101130002817390739F0EC5EFD4F40833093950254
:1011400020939402FF91EF91BF91AF919F918F9166
:101150007F916F915F914F913F912F910F900FBEB3
:101160000F901F9018955F926F927F928F929F922F
:10117000AF92BF92CF92DF92EF92FF920F931F93A5
:10118000CF93DF93EC013A014B01413482E45807DD
:101190008FE0680780E078070CF07FC060E874E8B3
:1011A0008EE190E0A40193010E942B0E215030406B
:1011B00040405040CA01B90122E030E040E050E038
:1011C0000E942B0E59016A01A601950120953095C8
:1011D0004095509594E0220F331F441F551F9A9558
:1011E000D1F760E074E284EF90E00E942B0ECA0118
:1011F000B9012FEF30E040E050E00E94D70DA4018C
:1012000093010E942B0EC90181509F4F1816190699
:101210001CF4522E5A9403C055245394521A60E081
:1012200079E08DE390E0A40193010E942B0E215000
:10123000304040405040CA01B90122E030E040E077
:1012400050E00E942B0E209530954095509583E0FC
:10125000220F331F441F551F8A95D1F760E074E2B7
:1012600084EF90E00E942B0ECA01B9012FEF30E00D
:1012700040E050E00E94D70DA40193010E942B0E84
:10128000C90181509F4F181619061CF4822F8150F6
:1012900002C081E0821B851500F5E885F98581E0B3
:1012A00090E00A8802C0880F991F0A94E2F78083B1
:1012B00060E079E08DE390E0A40193010E942B0EA1
:1012C0002150304040405040CA01B90122E030E096
:1012D00040E050E00E942B0E04C0E885F9851082A2
:1012E0009501EC81FD813083EE81FF812083EA85C9
:1012F000FB85208141E050E0CA010E8402C0880FC6
:10130000991F0A94E2F7282B2083EA85FB85208128
:10131000CA010F8402C0880F991F0A94E2F7282B94
:101320002083EA85FB858081088802C0440F551F11
:101330000A94E2F7842B8083DF91CF911F910F9164
:10134000FF90EF90DF90CF90BF90AF909F908F90E5
:101350007F906F905F900895DC011296ED91FC9163
:101360001397EE57FF4F8081918192938293089556
:10137000FC01A085B18521898C9190E0022E02C0EC
:10138000959587950A94E2F780FFF6CF0484F5855A
:10139000E02D6083089581ED91E090939902809310
:1013A000980284E192E090939B0280939A0285ECEC
:1013B00090E090939D0280939C0284EC90E0909347
:1013C0009F0280939E0280EC90E09093A102809314
:1013D000A00281EC90E09093A3028093A20286EC9D
:1013E00090E09093A5028093A40284E08093A602EB
:1013F00083E08093A70287E08093A80285E0809332
:10140000A90281E08093AA0208950F931F93CF93BE
:10141000DF938C01EB0109C02196D801ED91FC917D
:101420000190F081E02DC801099568816623A1F73C
:10143000DF91CF911F910F910895EF92FF920F933B
:101440001F93CF93DF938C017B01EA010CC0D7017E
:101450006D917D01D801ED91FC910190F081E02D1D
:10146000C80109952197209791F7DF91CF911F919E
:101470000F91FF90EF900895DC01ED91FC910280B7
:10148000F381E02D099508950F931F938C01DC01E2
:10149000ED91FC910190F081E02D6DE00995D8016E
:1014A000ED91FC910190F081E02DC8016AE0099571
:1014B0001F910F9108950F931F938C010E943C0A76
:1014C000C8010E94440A1F910F9108952F923F92E4
:1014D0004F925F926F927F928F929F92AF92BF9244
:1014E000CF92DF92EF92FF920F931F93DF93CF93F0
:1014F000CDB7DEB7A0970FB6F894DEBF0FBECDBF55
:101500001C016A017B01411551056105710549F412
:10151000DC01ED91FC910190F081E02D60E30995F3
:1015200054C0882499245401422E552466247724DB
:1015300001E010E00C0F1D1F080D191DC701B601B9
:10154000A30192010E94090EF80160830894811C96
:10155000911CA11CB11CC701B601A30192010E94FC
:10156000090EC901DA016C017D01C114D104E10445
:10157000F104F1F681E0E82EF12CEC0EFD1EE80CF2
:10158000F91C3E010894611C711CD501C40101972E
:10159000A109B1096C01C818D90814C0F601EE0DF3
:1015A000FF1D60816A3010F4605D01C0695CD1018B
:1015B000ED91FC910190F081E02DC1010995089415
:1015C000E108F1086E147F0449F7A0960FB6F8946D
:1015D000DEBF0FBECDBFCF91DF911F910F91FF9066
:1015E000EF90DF90CF90BF90AF909F908F907F90C3
:1015F0006F905F904F903F902F9008952AE00E9447
:10160000660A0895EF92FF920F931F93CF93DF9393
:10161000EC017A018B0177FF0FC0E881F98101901D
:10162000F081E02D6DE2099510950095F094E0941D
:10163000E11CF11C011D111DCE01B801A7012AE01A
:101640000E94660ADF91CF911F910F91FF90EF905A
:101650000895AB01662757FD6095762F0E94020B17
:1016600008959F92AF92BF92CF92DF92EF92FF9236
:101670000F931F93CF93DF93EC017A018B01922E8E
:10168000CB01BA0120E030E040E050E00E94210CA4
:10169000882364F4E881F9810190F081E02DCE0186
:1016A0006DE2099517FB109517F9109520E030E0D1
:1016B00040E05FE3AA240BC0CA01B90120E030E09A
:1016C00040E251E40E94250C9B01AC01A394A914B3
:1016D00098F3C801B7010E94BD0B5B016C010E9429
:1016E000920C7B018C01CE01B801A7010E94FE0A79
:1016F000992029F0CE0162E971E00E943C0AC801FC
:10170000B7010E94BE0C9B01AC01C601B5010E944D
:10171000BC0B20C020E030E040E251E40E94740D98
:101720007B018C010E948D0C5B016C01CC24B7FC09
:10173000C094DC2CCE01B601A5010E94020BC601AB
:10174000B5010E94C00C9B01AC01C801B7010E9409
:10175000BC0B9A949920F1F6DF91CF911F910F91D4
:10176000FF90EF90DF90CF90BF90AF909F90089543
:1017700022E00E94310B08955058BB27AA270ED0B3
:1017800075C166D130F06BD120F031F49F3F11F478
:101790001EF45BC10EF4E095E7FB51C1E92F77D150
:1017A00080F3BA17620773078407950718F071F47E
:1017B0009EF58FC10EF4E0950B2EBA2FA02D0B01D4
:1017C000B90190010C01CA01A0011124FF27591B86
:1017D00099F0593F50F4503E68F11A16F040A22F8C
:1017E000232F342F4427585FF3CF469537952795FD
:1017F000A795F0405395C9F77EF41F16BA0B620BFC
:10180000730B840BBAF09150A1F0FF0FBB1F661F42
:10181000771F881FC2F70EC0BA0F621F731F841F85
:1018200048F4879577956795B795F7959E3F08F0AB
:10183000B3CF9395880F08F09927EE0F979587956A
:101840000895D9D008F481E008950CD00FC107D1D4
:1018500040F0FED030F021F45F3F19F0F0C051119C
:1018600039C1F3C014D198F39923C9F35523B1F3C7
:10187000951B550BBB27AA2762177307840738F0FF
:101880009F5F5F4F220F331F441FAA1FA9F333D05E
:101890000E2E3AF0E0E830D091505040E695001C12
:1018A000CAF729D0FE2F27D0660F771F881FBB1FCE
:1018B000261737074807AB07B0E809F0BB0B802DA8
:1018C000BF01FF2793585F4F2AF09E3F510568F0F4
:1018D000B6C000C15F3FECF3983EDCF38695779588
:1018E0006795B795F7959F5FC9F7880F911D9695F6
:1018F000879597F90895E1E0660F771F881FBB1F52
:10190000621773078407BA0720F0621B730B840BFE
:10191000BA0BEE1F88F7E095089504D06894B111D2
:10192000D9C00895BCD088F09F5790F0B92F99275F
:10193000B751A0F0D1F0660F771F881F991F1AF0DA
:10194000BA95C9F712C0B13081F0C3D0B1E00895A3
:10195000C0C0672F782F8827B85F39F0B93FCCF324
:10196000869577956795B395D9F73EF490958095D0
:10197000709561957F4F8F4F9F4F0895E89409C0F0
:1019800097FB3EF490958095709561957F4F8F4FB2
:101990009F4F9923A9F0F92F96E9BB279395F695C8
:1019A000879577956795B795F111F8CFFAF4BB0F46
:1019B00011F460FF1BC06F5F7F4F8F4F9F4F16C0AA
:1019C000882311F096E911C0772321F09EE8872F34
:1019D000762F05C0662371F096E8862F70E060E0F0
:1019E0002AF09A95660F771F881FDAF7880F969569
:1019F000879597F90895990F0008550FAA0BE0E80D
:101A0000FEEF16161706E807F907C0F012161306C0
:101A1000E407F50798F0621B730B840B950B39F400
:101A20000A2661F0232B242B252B21F408950A2666
:101A300009F4A140A6958FEF811D811D089597F9A6
:101A40009F6780E870E060E008959FEF80EC089564
:101A500000240A941616170618060906089500248D
:101A60000A9412161306140605060895092E039407
:101A7000000C11F4882352F0BB0F40F4BF2B11F47B
:101A800060FF04C06F5F7F4F8F4F9F4F089557FDDA
:101A90009058440F551F59F05F3F71F04795880FDC
:101AA00097FB991F61F09F3F79F087950895121673
:101AB00013061406551FF2CF4695F1DF08C016161F
:101AC00017061806991FF1CF8695710561050894D0
:101AD0000895E894BB2766277727CB0197F90895E7
:101AE0008ADF08F48FEF08950BD0C0CFB1DF28F064
:101AF000B6DF18F0952309F0A2CFA7CF1124EACFC3
:101B0000C6DFA0F3959FD1F3950F50E0551F629F5C
:101B1000F001729FBB27F00DB11D639FAA27F00D46
:101B2000B11DAA1F649F6627B00DA11D661F829F6D
:101B30002227B00DA11D621F739FB00DA11D621F52
:101B4000839FA00D611D221F749F3327A00D611D6F
:101B5000231F849F600D211D822F762F6A2F112451
:101B60009F5750408AF0E1F088234AF0EE0FFF1FA4
:101B7000BB1F661F771F881F91505040A9F79E3FDB
:101B8000510570F05CCFA6CF5F3FECF3983EDCF3DD
:101B9000869577956795B795F795E7959F5FC1F718
:101BA000FE2B880F911D9695879597F90895629F52
:101BB000D001739FF001829FE00DF11D649FE00D45
:101BC000F11D929FF00D839FF00D749FF00D659FA6
:101BD000F00D9927729FB00DE11DF91F639FB00DA5
:101BE000E11DF91FBD01CF011124089597FB092EB6
:101BF00007260AD077FD04D049D006D000201AF479
:101C0000709561957F4F0895F6F7909581959F4F58
:101C10000895A1E21A2EAA1BBB1BFD010DC0AA1F2D
:101C2000BB1FEE1FFF1FA217B307E407F50720F045
:101C3000A21BB30BE40BF50B661F771F881F991FC0
:101C40001A9469F760957095809590959B01AC0109
:101C5000BD01CF01089597FB092E05260ED057FD33
:101C600004D0D7DF0AD0001C38F450954095309549
:101C700021953F4F4F4F5F4F0895F6F79095809510
:101C8000709561957F4F8F4F9F4F0895AA1BBB1B87
:101C900051E107C0AA1FBB1FA617B70710F0A61B6C
:101CA000B70B881F991F5A95A9F780959095BC018D
:101CB000CD010895EE0FFF1F0590F491E02D0994DA
:041CC000F894FFCFC6
:101CC400202020202046756574746572756E672126
:101CD40020202020004865697A756E67206175733D
:101CE400004865697A756E672065696E004F204803
:101CF40041492C20492043414E2048415A204C431D
:101D04004400545F6F3A00205370616E6E653A0070
:101D14004865697A756E672065696E202020200009
:101D24004865697A756E67206175732020202000EC
:101D34003A00203D20004300543A00204675747454
:101D440065722000232323205265616479202323B4
:101D540023002E000C000D000200090008003200D0
:101D6400320013003200130037000000803F0000EF
:101D7400E0410000E0410000E04101000000005BA0
:101D840001050A1D0A000040001400540000000070
:081D940000B809050A1D0A0050
:00000001FF
